:020000040800F2
:100000008818002079020008A71E00089F1E00081B
:10001000A31E000815190008792800080000000038
:100020000000000000000000000000004520000863
:1000300019190008000000002D1F000859210008B0
:10004000930200089302000893020008930200083C
:10005000930200089302000893020008FD190008AB
:10006000930200089302000893020008930200081C
:10007000930200089302000893020008930200080C
:1000800093020008930200089302000893020008FC
:10009000930200089302000893020008E11A000886
:1000A00093020008930200089302000893020008DC
:1000B000BD210008D5210008930200089302000822
:1000C00093020008930200089302000893020008BC
:1000D00093020008D9230008612400089302000855
:1000E0001D190008930200089302000893020008FB
:1000F000930200089302000893020008930200088C
:10010000930200089302000893020008930200087B
:10011000930200089302000893020008930200086B
:10012000930200089302000893020008930200085B
:1001300000F002F800F090F80AA090E8000C824469
:100140008344AAF10107DA4501D100F085F8AFF246
:10015000090EBAE80F0013F0010F18BFFB1A43F0A5
:10016000010318471C3A00003C3A0000103A24BF33
:1001700078C878C1FAD8520724BF30C830C144BF0C
:1001800004680C607047000000230024002500264E
:10019000103A28BF78C1FBD8520728BF30C148BFEA
:1001A0000B6070476E2900F09782702900F001847F
:1001B000662903F07784652903F07484672903F0C6
:1001C00071846129AFF3008003681B0A28BF41F0E6
:1001D0008001692900F04482642900F04182752978
:1001E00000F03E826F2900F08F83782900F0CD83E4
:1001F000E92900F02983E42900F02683F52900F09D
:100200002383EF2900F08C83F82900F0CC83036866
:10021000DB0928BF41F08001632900F0988273292F
:1002200000F09D82E32900F08486F32900F089869E
:10023000002070471FB500F0D9FE04000020002107
:1002400003F068F9401C60600020002103F04CF9C5
:10025000E0601FBD10B510BD00F09BFE1146FFF71A
:10026000E9FF02F0C1FD00F073FF03B4FFF7F2FFF6
:1002700003BC02F01EFB0000094880470948004704
:10028000FEE7FEE7FEE7FEE7FEE7FEE7FEE7FEE746
:10029000FEE7FEE704480549054A064B70470000A3
:1002A0005D21000831010008881200208818002014
:1002B0008814002088140020704700001CB50C46EC
:1002C000064B7B4469460090204600F01EFA044627
:1002D0000020694600F02CFA20461CBD6B0400008B
:1002E0000FB4044910B503AA029800F03DFA10BCFF
:1002F0005DF814FB2C0000200FB41CB5084B06AAB7
:100300007B4469460090059800F0FFF90446002000
:10031000694600F00DFA20461CBC5DF814FB000095
:100320002D04000070B50C460546012A05D028783A
:10033000800600D5EA69002302E0012305E05B1C8A
:10034000934202D2E05C0028F9D1A869E618C01AED
:10035000A861286A18442862284600F047F904E09A
:10036000D5E9012114F8010B9047B442F8D328468F
:1003700000F052F970BD00002DE9F05F8946044697
:100380004FF0000ADFF874B1FB44C0F820A020460B
:10039000E1688847002874D0252806D0D4E90121D7
:1003A0009047206A401C2062F1E700265F46204605
:1003B000E16888472028054607DB312D05D27819EA
:1003C00010F8200C08B10643F1E7B00701D526F07C
:1003D0000406C4F81CA00027C4F818A02A2D09D0D0
:1003E000284602F05FFA38B304EB8708303DC8F8BE
:1003F000185019E059F8041B204604EB870291615C
:10040000E1688847012F054618D1E069002820DA05
:1004100026F020061DE0D8F8180000EB800005EB60
:1004200040003038C8F818002046E1688847054683
:1004300002F038FA0028EED1012F0AD02E2D08D173
:100440002046E16888477F1C0546022F46F02006BB
:10045000C4DBA069002803DA404246F00106A0612F
:10046000F00701D026F010066C2D0BD0682D09D0B6
:100470004C2D39D06A2D35D0742D35D07A2D33D00E
:1004800016E038E0E1682F4620468847B842054626
:1004900009D16C2F26D04FF48060E16806432046D6
:1004A0008847054604E06C2F1AD04FF4807006434D
:1004B0000DB3A5F14100192802D8203546F4006695
:1004C0004A462946204626604E46FFF76BFE80B11D
:1004D00001280BD0F61D26F0070000F1080956E7A9
:1004E0004020E4E78020D8E70020D6E706F10409A1
:1004F0004DE7284652E7206ABDE8F09F1C37000010
:1005000030B505460B462A4613F8014B12F8010B8D
:1005100008B1A042F8D01CB1002802D06D1CF1E750
:10052000284630BD10B5431C02E010F8011B71B124
:100530008107FAD14FF0013202C88C1A8C4314EAB9
:10054000C211F9D0C01A0A0603D0C01E10BDC01ACD
:1005500010BD0A0401D0801E10BD0902FCD0401E4F
:1005600010BD00004FF0013C50F8042B51F8043B43
:100570009A4221D1A2EB0C03934313EACC1317D177
:1005800050F8042B51F8043B9A4215D1A2EB0C030E
:10059000934313EACC130BD150F8042B51F8043BCE
:1005A0009A4209D1A2EB0C03934313EACC13DBD09C
:1005B0004FF00000704700BFD01A01BAB1FA81F1C4
:1005C00001F0180122FA01F0CB40C1F12001DBB2A9
:1005D000C0B2C01A2CFA01F3D11A914311EAC31127
:1005E000E6D17047704770477047704770B5044652
:1005F00085690068C10601D5302600E02026C007C5
:1006000007D070BDD4E9012130469047206A401CD4
:1006100020626D1EF6D570BD70B504468569007800
:10062000C00707D170BDD4E9012120209047206A7E
:10063000401C20626D1EF6D570BD09684A0501D5C3
:1006400040B27047C905FCD500B2704709684A0539
:1006500001D5C0B27047C905FCD580B27047000013
:100660002DE9F0410646002410687529314616A58B
:1006700010D0FFF7E2FF002802DA404213A507E09E
:1006800031688A0701D512A502E0490704D511A5F2
:10069000012401E0FFF7DAFF00210A2206F1240716
:1006A00009E0B0FBF2FCB0FBF2F302FB1C003030BF
:1006B00078541846491C0028F3D123462A46304670
:1006C000BDE8F04100F0C5B9000000002D000000B9
:1006D0002B0000002000000011680268006A53052A
:1006E00001D508700AE0D30501D5088006E013069D
:1006F00003D5C217C1E9000200E00860012070477D
:1007000001694A1C02610878704700B58FB0CDE9D5
:1007100001310021059105497944CDE903101146C5
:100720006846FFF729FE0FB000BD0000E5FFFFFFA0
:100730000A6802F8010B0A60704710B5436913B1EB
:10074000AFF3008001E0FFF7EDFD012010BD12784E
:1007500000F124010A7000224A700122EDE71168BD
:100760004FF0FF32E9E70000074B70B50D467B44C0
:10077000FFF7CBFF0446284600F0E7FB10B14FF02F
:10078000FF3070BD204670BD5B2600002DE9FF5F85
:1007900015468A460446DFF8AC80F8440027D8E9BD
:1007A00000103E46CDE9001010E03AF816106A46F7
:1007B00002A800F0CEFB411C07D02178890603D5A2
:1007C000E269391891420DD80744761C20788006DA
:1007D00002D5E069B84205DDAE42E6DB3AF8160024
:1007E0000028E2D1A069C01BA0612046FFF7FEFEF1
:1007F000D8E90010CDE90010002017E03AF81810F1
:100800006A4602A800F0A5FBB0F1FF3F81460BD07D
:1008100000250DF1080B05E0D4E901211BF80500C6
:1008200090476D1C4D45F7D308F10100B04280465A
:10083000E4DB206A384420622046FFF7EDFEBDE885
:10084000FF9F00001E3300002DE9F0418046D21DBD
:1008500022F007020025D2E90002F52915A614D0DE
:10086000011E72F1000106DA0023D0EB030063EBF6
:10087000020211A608E0D8F800108B0701D50FA6D8
:1008800002E0490701D50EA601251146002408F112
:10089000240704E000F098F830323A55641C50EA1E
:1008A0000102F7D12B46324621464046BDE8F041D1
:1008B00000F0CFB8000000002D0000002B00000069
:1008C0002000000030B4002100F1240408E002F010
:1008D0000705D208303542EA4372DB086554491CEB
:1008E00052EA0305F3D10468002310A2250708D5B6
:1008F00004F020040C4304D0C46901230CA2641E3C
:10090000C46130BC00F0A5B810B50446214610689B
:10091000FFF79CFE02462046BDE810400023D1E7C9
:10092000D21D22F00701D1E90023CBE7000000002F
:1009300030000000F0B40D460188090502D5214CB5
:100940007C4402E01F4C7C440E34002100F124065C
:1009500008E002F00F071209E75D42EA03721B0983
:100960007754491C52EA0307F3D102780023120797
:1009700004D5702D06D009B1022311342246F0BCF3
:1009800000F067B801231034F8E770B504460D464F
:1009900021461068FFF75AFE024629462046BDE868
:1009A00070400023C6E7D21D22F00703D3E90023DD
:1009B000C0E70368126843F0200303600823C361A3
:1009C0000023B7E78031000030B5B0F10A024FEAEA
:1009D000900E71F100034EEA817EB0EB0E0061EBE8
:1009E00091014FEA101E4EEA017E10EB0E0041EB22
:1009F00011114FEA102E4EEA016E10EB0E0041EB82
:100A000011214FEA104E4EEA014E10EB0E0041EB61
:100A10001141401841F100014FEAD00040EA417015
:100A20004FEAD10110EB80054FEA810444EA90744B
:100A300044EB01046D1944EB0404521BA3414FF035
:100A4000000348BF0A3200D530BD401C41F100010F
:100A500030BD2DE9F0470D4699469246044600F117
:100A600024080168880604D5E06921F0100121609E
:100A700000E00120A84201DD471B00E00027A1693A
:100A80007A1902EB0900081AA0612078C00602D486
:100A90002046FFF7ABFD002608E0D4E901211AF853
:100AA00006009047206A401C761C20624E45F4DB0D
:100AB0002078C0060AD52046FFF798FD06E0D4E965
:100AC000012130209047206A401C2062381EA7F187
:100AD0000107F4DC07E0D4E9012118F8050090478C
:100AE000206A401C2062281EA5F10105F3DC204687
:100AF000FFF792FD2078000602D50220BDE8F087BE
:100B00000120FBE770472DE9FF4F0C461E464FF0D2
:100B1000FF378BB0D2E90001DDF860800A908A4689
:100B2000C1F30A5505B93D46002108464FF00000C3
:100B3000BAF1000F00F4400005DA00EB80004FF43A
:100B4000400101EA50004FEA9059B9F1010F00DD70
:100B5000B9460A9850EA4A000ED044F61050A5F261
:100B6000FF3545432F14B8F1000F1ED07542291EE2
:100B70001EDDC9F100021CE0B8F1010F4FF00000CA
:100B800001D0302103E0F24305E02154401CB04283
:100B9000FBDB30460022002121540B99C1F808806C
:100BA000C1E900200FB0BDE8F08FBD1B6D1CDEE772
:100BB0004A4600DA694206A800F05CFA06AB93E800
:100BC000070003AB83E8070050460A9900F0CAFA11
:100BD0008DE80700A0F500501F3800900398002D05
:100BE00009DD42F21F014A46084403A90390684602
:100BF00000F029FD08E0A0F500504A461F3803A97F
:100C00000390684600F033FD8DE807000004000CF7
:100C100003D04FF0FF30410800E01046B8F1000F5C
:100C200003D00022009215461EE0751E05D4FFF782
:100C3000CBFE303262556D1EF9D5B3460122084312
:100C400002D000227F1C04E02078302801D100224D
:100C50007F1E002A099786D01DE0112D07DAFFF7C5
:100C6000B3FE303262556D1C50EA0102F5D10843E3
:100C700002D00098C8B10EE00021681E05E0235C98
:100C8000625C63542254401E491C8142F7DBAB4630
:100C9000A81B401E0990002004F80B000B98099A2D
:100CA000C0F80880C0E9002B7CE711264FF000084F
:100CB00059E72DE9F04F88460446D21D22F007017E
:100CC00091B0D1E90001CDE90A0101F0D7FD02465A
:100CD0000B98C00F01D02D2007E02068810701D5B7
:100CE0002B2002E0202101EAC000032A099001D054
:100CF000072A05DB03464146204600F07BF90BE15D
:100D00002078800601D5E06900E00620B8F1650F83
:100D1000814606D0B8F1660F18D0B8F1670F70D1D0
:100D200031E00020B9F1110F009001DB112301E047
:100D300009F101030AAA01A90CA8FFF7E4FEDDE905
:100D40000C70002609F10105834647E001204B465F
:100D500000904FF000470AAA01A90CA8FFF7D3FEA4
:100D6000DDE90DB00C995D46002610B909F10100CE
:100D70000D18B9EB050003D4C0F1FF3609F10105E8
:100D8000A5EB09002BE0B9F1010F01DA4FF00109E1
:100D90000020B9F1110F0090484601DD112300E059
:100DA00003460AAA01A90CA8FFF7ADFEDDE90C7005
:100DB0004D4600268346207800070AD4AB4500DA6A
:100DC0005D4601A8012D04DD411911F8011C3029EF
:100DD00007D04F4502DA17F1040F04DA01208246EA
:100DE0000FE06D1EEEE7002F02DCED1B3E4403E03A
:100DF000781CA84200DD7D1CB81B00F1010A4FF0F1
:100E000000472078000703D4AA4501DB4FF0FF3AE2
:100E10000021B7F1004F0DF143088DF8431024D0A5
:100E200002202B23002F01DA7F422D230A21021EEC
:100E3000A0F1010000DC5FB197FBF1FC97FBF1F240
:100E400001FB1C7C17460CF1300C08F801CDEEE7D5
:100E5000A8F1010003702188090501D5452100E0B2
:100E60006521A0F1010800F8011C09980FA9A1EB68
:100E70000807FF1D00B10120411901EBEA70A169CB
:100E80003844081A401EA0612078C00602D42046CB
:100E9000FFF7ACFB099828B1D4E901219047206AFB
:100EA000401C20622078C00622D52046FFF79EFB1A
:100EB0001EE0002E04DBB34502DD01A8805D00E0EA
:100EC0003020D4E901219047206A401C2062761C22
:100ED000AAF101005FEA000A0AD100F087F8C068B1
:100EE0000168405CD4E901219047206A401C2062DF
:100EF000281EA5F10105DCDC07E0D4E9012118F882
:100F0000010B9047206A401C2062381EA7F10107A0
:100F1000F3DC2046FFF780FB032011B043E610B559
:100F2000436913B1AFF3008001E0FFF72FFC01200C
:100F300010BD128800F1240182840022C2840122A3
:100F4000EDE711684FF0FF32E9E7007B00F0800029
:100F5000704770B516460C46054600F03FF803682A
:100F600093F80101012806D0FF2C0FD8185D68B155
:100F700001202C7070BDD3F807013246214603F2E0
:100F8000071303442846BDE8704018474FF0FF3070
:100F900070BD754600F0E2F8AE460500694653465E
:100FA00020F00700854618B020B5FFF773F9BDE8BB
:100FB00020404FF000064FF000074FF000084FF0C0
:100FC000000B21F00701AC46ACE8C009ACE8C00951
:100FD000ACE8C009ACE8C0098D46704710B500F018
:100FE00005F8001D10BD00BF2D250000004870470A
:100FF000481200202DE9F0411F46044603260168EF
:10100000072A01F4006004DB08B116A505E016A567
:1010100003E008B115A500E015A521F0100020603F
:10102000A069C01EA0610FB1401EA0612046FFF75D
:10103000DDFA4FB1D4E9012138469047206A401CBF
:101040002062C01C206206E0206AFAE7D4E9012190
:1010500015F8010B9047761EF8D22046FFF7DCFA10
:10106000BDE8F0814E414E006E616E00494E460073
:10107000696E66002DE9F047814616468AB033480E
:1010800078440DC88DE80D0030487844801C03ACCE
:101090000DC884E80D0041F69B300844372190FBD1
:1010A000F1F290FBF1F5A5F1800501FB12041B3C68
:1010B00002D56442012000E00020DFF890A08046C5
:1010C0000027FA44AAF1BE0A0DE0E00709D0324633
:1010D000684607EB47010AEB810100F0C8FA8DE88A
:1010E000070064107F1C002CEFD1184F7F44AC3FE9
:1010F00018E0E80714D007EB04100DF1180A90E887
:101100000E008AE80E00C068F04201D198190890DC
:10111000324606A903A800F0AAFA03AB83E8070049
:101120006D10641C002DE4D132466946B8F1000F01
:1011300003A802D000F087FA01E000F098FAC9E9AC
:101140000001C9F808200AB0BDE8F087E42A0000D1
:101150000446AFF300802046FFF787F80048704749
:10116000281200205FEA400C08BF91F0000F4FEA00
:101170008C234FEAC12243EA51514FEA1C5018BF59
:1011800000F5F0404FEA300018BF41F000415FEA3F
:101190006C5C00F02980BCF1FF3F08BF40F080404C
:1011A0007047130C06BF12044FF0100C4FF0000CE8
:1011B000130E04BF12020CF1080C130F04BF12012E
:1011C0000CF1040C930F04BF92000CF1020CD30F2E
:1011D00004BF52000CF1010C11464FF00002A0F1C7
:1011E0001F00A0EB0C00704711F0004F08BF7047C4
:1011F00031F000413FF4D5AF0B0C06BF09044FF0AE
:10120000100C4FF0000C0B0E04BF09020CF1080C7F
:101210000B0F04BF09010CF1040C8B0F04BF8900F4
:101220000CF1020CCB0F04BF49000CF1010CCCF106
:101230002003A0EB0C0022FA03F302FA0CF241EABD
:10124000030100F10100704720F07F4C80EA0300A9
:1012500023F07F47ACEB070303F57C5300F000401D
:1012600003F1FF032DE980494FEA154B09B44FEA1A
:10127000144325EA0B4E24EA03480FF2042606EB3A
:10128000132749083E785FEA320203FB0667C7F579
:10129000000707FB06F64FEA54374FEAD64606F139
:1012A000020607FB066CCCF1005C4FEA1C472CEAF7
:1012B000074C07FB06F40CFB06F504EB15464FEA5A
:1012C000961634BF00204FF000404FEAD13706FB9E
:1012D00007FC4FEA1C4C0CFB0BF7D21B03FB0CF773
:1012E00061EB07010CFB0EF7B0EB074072EB174206
:1012F0000CFB08F734BFA2EB0742B2EB074261EBED
:1013000017414FEA0C444FEA910706FB07FC4FEAEE
:101310001C4C0CFB0BF7B0EBC74072EB573203FBD6
:101320000CF734BFA2EBC742B2EBC74261EB5731B7
:101330000CFB0EF7B0EBC70072EB57720CFB08F713
:1013400034BFA2EBC702B2EBC70261EB5771039F38
:101350004FEA816141EA921104EBCC044FEAD137A4
:101360004FEA826206FB07FC42EA90124FEA806075
:101370004FEA1C4C0CFB0BF7D21B03FB0CF761EB89
:1013800007010CFB0EF7B0EB074072EB17420CFBAA
:1013900008F734BFA2EB0742B2EB074261EB1741FB
:1013A0004FEA8C554FEA910704EB9C2406FB07FC9F
:1013B0004FEA1C4C0CFB0BF7B0EBC74072EB5732FB
:1013C00003FB0CF734BFA2EBC742B2EBC74261EBA1
:1013D00057310CFB0EF7B0EBC70072EB57720CFBEA
:1013E00008F734BFA2EBC702B2EBC70261EB57713B
:1013F00015EB4C254FEA816141EA92114FEA826276
:101400004FEAD13742EA901206FB07FC44F1000490
:101410004FEA80604FEA1C4C0CFB0BF7D21B03FB1E
:101420000CF761EB07010CFB0EF7B0EB074072EB1A
:1014300017420CFB08F734BFA2EB0742B2EB07429E
:1014400061EB174115EB1C154FEA813141EA9241DE
:101450004FEA823242EA90424FEA80304FEA0C76FD
:1014600044F1000448EA03434EEA0B484FF0000EF3
:10147000B2EB080C71EB030724BF624639464EEB12
:101480000E0E4FF0000B0018524149414BEB0B0B75
:10149000B2EB080C71EB03077BF1000B24BF624633
:1014A00039464EEB0E0E4FF0000B001852414941E9
:1014B0004BEB0B0BB2EB080C71EB03077BF1000B52
:1014C00024BF624639464EEB0E0E51EA020718BFA2
:1014D00046F0010616EB0E7655F1000254F10001BC
:1014E00003D5BDE88901BDE80088BDE88901BDE8F4
:1014F0000048B619524141EB0101A3F101037047C5
:1015000080807F7E7D7C7B7A797877767675747340
:10151000727171706F6E6E6D6C6C6B6A6A696868FF
:10152000676666656464636362616160605F5F5E95
:101530005E5D5D5C5C5B5B5A5A595958585757560B
:101540005655555554545353525252515150505070
:101550004F4F4F4E4E4D4D4D4C4C4C4B4B4B4A4AC2
:101560004A49494948484847474747464646454506
:10157000454444444443434343424242424141413F
:10158000002B26D4770021D01CB54FEA370703B4CF
:101590004FF010004FF010014FF000000FBCBDE8FD
:1015A00010400BF1010BBBF1010F08BF5FEA1707F9
:1015B00022BF12F1010211F101014FF0004143F18C
:1015C000000300F0004043EA00007047F9D35708D9
:1015D000DAE746EA064613F1400F4FEA16461FDDEA
:1015E00013F1200FDFBF16430A46002120335B4270
:1015F000C8D0C3F1200746EA064602FA07F74FEAC9
:10160000164646EA0706C3F1200722FA03F201FA5A
:1016100007F721FA03F14FF0000342EA0702B1E7AE
:1016200046EA020646EA06464FEA164646EA01063A
:10163000BCBF46EA0646360C4FF000034FF00002EE
:101640004FF000019EE72DE9C048934630B491E881
:10165000380007C831EA400C48BF34EA430C03D5D0
:10166000FFF7F2FDFFF78CFFF0BCBDE800882DE925
:10167000C048934630B491E8380007C810F0804F56
:1016800008BF13F0804F03D100F005F8FFF778FF93
:10169000F0BCBDE8008820F07F4780EA030023F01B
:1016A0007F4C07EB0C03A3F57C5300F00040A3F143
:1016B000FE0392F0000F00F0B38095F0000F00F0F1
:1016C00077802DE901494FEA11404FEA144621EA9B
:1016D000004800FB06FC24EA064708FB06F607FB69
:1016E00008F800FB07F718EB06484CEB164C4FEADE
:1016F000124B18EB07484FEA15464CEB174022EA0D
:101700000B4E0BFB06FC25EA06470EFB06F607FB15
:101710000EFE0BFB07F71EEB064E4CEB164C4FF084
:1017200000061EEB074E4CEB174B18EB0B0840F175
:10173000000018EB0E0B58EB000840F100008F1A68
:101740004FF000013CBFC943661B14BFB5EB040C4E
:1017500000213CBFC943F61B4FEA17444EEA8E0EE8
:1017600027EA04454FEA1C4704FB07622CEA074CB2
:1017700005FB07F70CFB05F604FB0CFC16EB074614
:1017800042EB174216EB0C4642EB1C421BEB0606E3
:1017900058EB0202414146EA9E0601D5BDE80189A7
:1017A000B619524141EB0101A3F10103BDE80189E2
:1017B0004FEA14454FEA114724EA054621EA074C4F
:1017C00005FB07F406FB07F70CFB06F105FB0CFC19
:1017D00011EB074144EB17444FEA124711EB0C4160
:1017E00044EB1C4422EA074C05FB07F206FB07F713
:1017F0000CFB06F605FB0CFC16EB074642EB17420A
:1018000016EB0C4642EB1C456A1854F1000148BF28
:101810007047B619524141EB0101A3F10103704732
:1018200095F0000F37D04FEA11424FEA144721EAF2
:10183000024624EA074C02FB07F106FB07F70CFB04
:1018400006F402FB0CFC14EB074441EB17414FEA92
:10185000154714EB0C4441EB1C4125EA074C02FBF5
:1018600007F506FB07F70CFB06F602FB0CFC16EB74
:10187000074645EB174516EB0C4645EB1C42121983
:1018800051F1000148BF7047B619524141EB0101C7
:10189000A3F1010370474FEA14454FEA114724EAC8
:1018A000054621EA074C05FB07F106FB07F70CFB91
:1018B00006F24FF0000605FB0CFC12EB074241EB71
:1018C000174112EB0C4251EB1C4148BF7047921874
:1018D00041EB0101A3F101037047000008B50121AC
:1018E000082000F035FB4FF48070ADF800001020A8
:1018F0008DF8030003208DF802006946044800F0CB
:10190000E5F94FF48071024800F0BDFA08BD00000F
:10191000000C014000BFFEE7704700002DE9F047D2
:101920000A2001F02DFA4FF4805000F051F9002800
:1019300055D000214FF0804000F0CCFC01218807F9
:1019400000F09FFC00BF4FF48051264800F092FA4F
:101950000028F8D100214FF0804000F092FC4FF0B9
:10196000804000F09AFC400000EB800000EB00108B
:101970004FEA4009484601F06DFF074600221A4B26
:1019800001F010FE054601F0DBFD044617484068F3
:10199000401C164948601649204601F0D3FF04D286
:1019A00014484068401C1349486010E000200F496B
:1019B000486010484068072803DD01200E49086090
:1019C00002E000200C49086000200A4948600748EE
:1019D00040680A28EADA4FF4805000F0F3F8BDE8D6
:1019E000F087000000100140000069401C12002038
:1019F0000000484210120020080000202DE9F047A6
:101A00000A2001F0BDF9022000F0E2F8002858D0C9
:101A100000214FF0804000F05DFC0121880700F0BC
:101A200030FC00BF0221284800F024FA0028F9D138
:101A300000214FF0804000F024FC4FF0804000F087
:101A40002CFC400000EB800000EB00104FEA400946
:101A5000484601F0FFFE074600221C4B01F0A2FDA4
:101A6000054601F06DFD04460021204601F0E9FF26
:101A700024D217488068401C1549886015492046C3
:101A800001F060FF04D214488068401C124988604D
:101A900010E000200E4988600F488068072803DDA9
:101AA00001200E49086002E000200C490860002077
:101AB00009498860064880680A28EADA022000F0AE
:101AC00081F8BDE8F0870000001001400000694087
:101AD0001C12002000004842101200200C000020C0
:101AE0002DE9F0470A2001F04BF9802000F070F852
:101AF000002858D000214FF0804000F0EBFB01217E
:101B0000880700F0BEFB00BF8021284800F0B2F932
:101B10000028F9D100214FF0804000F0B2FB4FF0D7
:101B2000804000F0BAFB400000EB800000EB0010AA
:101B30004FEA4009484601F08DFE074600221C4B43
:101B400001F030FD054601F0FBFC04460021204673
:101B500001F077FF24D217480068401C154908603F
:101B60001549204601F0EEFE04D214480068401CDE
:101B70001249086010E000200E4908600F48006814
:101B8000072803DD01200E49086002E000200C490F
:101B90000860002009490860064800680A28EADA57
:101BA000802000F00FF8BDE8F08700000010014031
:101BB000000069401C120020000048421012002062
:101BC000040000200149086070470000140401402F
:101BD000014600200022074B1B6803EA0102054B67
:101BE00014331B680B4013B10AB1012000E0002040
:101BF0007047000000040140002123498279002A37
:101C00003AD00A46126803689A430B461A600A1DC6
:101C1000126803689A430B1D1A60027911440A681E
:101C200003681A430A60184A0832126803689A4324
:101C3000154B08331A601A1D126803689A43124B39
:101C40000C331A604279102A0ED11A1F12680368E9
:101C50001A430D4B08331A601A1D126803681A43A1
:101C6000094B0C331A600DE00749427911440A68A8
:101C700003681A430A6005E0027911440A680368A0
:101C80009A430A60704700000004014030B500220A
:101C90008B071C0F0F2303FA04F20B4B8C1053F825
:101CA00024309343084C8D1044F8253023468C1083
:101CB00053F824308C07240F00FA04F42343024C19
:101CC0008D1044F8253030BD080001402DE9F04169
:101CD000024600250026002000230024002791F85A
:101CE00003C00CF00F0591F803C00CF0100CBCF110
:101CF000000F03D091F802C04CEA050591F800C02E
:101D0000BCF1000F31D0146800202BE04FF0010C23
:101D10000CFA00F3B1F800C00CEA03069E4220D191
:101D200083004FF00F0C0CFA03F7BC4305FA03FCD9
:101D30004CEA040491F803C0BCF1280F06D14FF01F
:101D4000010C0CFA00FCC2F814C00AE091F803C0C0
:101D5000BCF1480F05D14FF0010C0CFA00FCC2F8A1
:101D600010C0401C0828D1D31460B1F800C0BCF1E9
:101D7000FF0F34DD546800202EE000F1080C4FF016
:101D8000010808FA0CF3B1F800C00CEA03069E4201
:101D900021D183004FF00F0C0CFA03F7BC4305FA76
:101DA00003FC4CEA040491F803C0BCF1280F05D1F0
:101DB00000F1080C08FA0CF8C2F8148091F803C07E
:101DC000BCF1480F07D100F1080C4FF0010808FAE8
:101DD0000CF8C2F81080401C0828CED35460BDE82F
:101DE000F0810000F0B50A46002300240021002500
:101DF00000F00046B6F1004F02D11D4EF16901E03E
:101E00001B4E7168C0F3034583B200F44016B6F56B
:101E1000401F08D121F07061154E766826F070667B
:101E2000134F7E6012E000F48016B6F5801F06D1D5
:101E3000032606FA05F4A14341F0706106E0460D61
:101E4000360103FA06F6B14341F0706122B1460D46
:101E5000360103FA06F6314300F00046B6F1004FB2
:101E600002D1034EF16101E0014E7160F0BD00004E
:101E7000000001400246002093680B400BB1012096
:101E800000E00020704741617047016170474FF6E4
:101E9000FF710180022181700421C170704700BF71
:101EA000FEE700BFFEE7704770B5002100230F2258
:101EB000C47804B3154C246804F4E064C4F5E06409
:101EC000210AC1F10403CA40447804FA03F184787A
:101ED0001440214309010E4C0678A155047804F002
:101EE0001F050124AC4005786D11AD0005F1E0251A
:101EF000C5F8004109E0047804F01F050124AC4056
:101F0000044D0678761145F8264070BD0CED00E0D2
:101F100000E400E080E100E002490143024A116070
:101F2000704700000000FA050CED00E0704700006B
:101F300029B1064AD2690243044BDA6104E0034A3C
:101F4000D2698243014BDA61704700000010024001
:101F500029B1064A92690243044B9A6104E0034A9C
:101F600092698243014B9A61704700000010024061
:101F700030B500210022002400232D4D6D6805F0AE
:101F80000C0121B1042905D0082923D105E0294DF0
:101F9000056022E0274D05601FE0254D6D6805F4C2
:101FA0007012234D6D6805F48034022505EB9242D2
:101FB0001CB9214D554305600BE01D4D6D6805F4BE
:101FC00000351DB11C4D5543056002E0194D5543C8
:101FD000056002E0174D056000BF00BF144D6D683D
:101FE00005F0F0010909154D6B5C0568DD404560A1
:101FF0000F4D6D6805F4E061090A104D6B5C456892
:10200000DD4085600A4D6D6805F46051C90A0B4DCD
:102010006B5C4568DD40C560054D6D6805F4404169
:10202000890B074D6B5CC568B5FBF3F5056130BDE9
:102030000010024000127A0000093D00320000202A
:1020400042000020704710B500F002F810BD0000FB
:102050000CB50020019000903348006840F48030B7
:102060003149086000BF3048006800F4003000903B
:102070000198401C0190009818B90198B0F5A06F24
:10208000F1D12948006800F4003010B1012000901F
:1020900001E0002000900098012843D12348006807
:1020A00040F01000214908600846006820F0030055
:1020B00008600846006840F0020008601A4840685E
:1020C000194948600846406848600846406840F43E
:1020D000806048600846406820F47C1048600846EC
:1020E000406840F4E81048600846006840F080709E
:1020F000086000BF0C48006800F000700028F9D0AC
:102100000948406820F003000749486008464068D5
:1021100040F00200486000BF0348406800F00C0037
:102120000828F9D10CBD0000001002400020024038
:10213000042808D14FF0E021096941F004014FF073
:10214000E022116107E04FF0E021096921F004016C
:102150004FF0E022116170477047000010B513483E
:10216000006840F0010011490860084640681049C5
:1021700008400E494860084600680E4908400B496F
:1021800008600846006820F480200860084640681F
:1021900020F4FE0048604FF41F008860FFF753FFF3
:1021A0004FF000600449086010BD000000100240BC
:1021B0000000FFF8FFFFF6FE08ED00E010B501217A
:1021C000880700F06DF818B10121880700F056F873
:1021D00010BD000010B501210B4800F061F888B176
:1021E0000A48008840F4004008490880084909A0CE
:1021F000FEF776F80121044800F040F8002102487B
:1022000000F03FF810BD0000000400404600002030
:10221000900D002025730D0A000000007FB50546D3
:102220000C4601210220FFF783FEADF80850ADF8FF
:1022300004400020ADF80A00ADF8060001A90E48E0
:1022400000F04AF8012211460B4800F03AF81D2030
:102250008DF8000000208DF8010003208DF80200A9
:1022600001208DF803006846FFF71EFE0121024899
:1022700000F007F87FBD000000040040CA4302825E
:10228000704721B1028842F00102028004E0028816
:102290004FF6FE731A40028070470146888C7047E3
:1022A00030B50246002000230024158A05EA010308
:1022B000958905EA010413B10CB1012000E000206A
:1022C00030BD1AB183890B43838102E083898B433C
:1022D0008381704781847047002202881D4B984299
:1022E0000ED01D4B98420BD0B0F1804F08D01B4B45
:1022F000984205D01A4B984202D01A4B984204D10A
:102300004FF68F731A404B881A43174B984207D0E9
:10231000164B984204D04FF6FF431A40CB881A431D
:1023200002808B8883850B8803850A4B98420BD0EB
:10233000094B984208D00E4B984205D00D4B98425D
:1023400002D00D4B984201D10B7A03860123838280
:1023500070470000002C01400034014000040040A0
:1023600000080040000C0040001000400014004035
:102370000040014000440140004801407FB5044650
:102380000D4601210846FFF7D3FD41F28830ADF834
:10239000080041F61F40ADF804000020ADF80A0027
:1023A000ADF8060001A94FF08040FFF795FF01222C
:1023B00041218807FFF785FF1C208DF800000020D1
:1023C0008DF8010003208DF8020001208DF8030034
:1023D0006846FFF769FD7FBD10B540F225511D48E5
:1023E00000F08FF810B31B4800F046F9C4B21A4849
:1023F000008800F40040C8B91748008800F4804005
:1024000060B10A2C03D000201349088020E0124854
:10241000008840F400401049088019E00D2C06D1D6
:102420000D48008840F480400B49088010E00A48BD
:102430000088C0F30D0009490C5407480088401C6F
:102440000549088008460088C72801DD002008806B
:1024500010BD00000038014030000020C80C0020F2
:1024600010B52021164800F03FF800B3144800F0E2
:1024700003F9C4B21348008800F40040B8B9114809
:102480000088B0F5806F13DA00210F48FFF722FFB4
:102490000C48008818B901210B48FFF7F2FE0948E3
:1024A00001880088401C074A10800848445405E011
:1024B0000448008840F400400249088010BD000034
:1024C000004400404600002000040040900D002021
:1024D00021B1828942F40052828104E082894DF662
:1024E000FF731A408281704702460020B1F5007FD9
:1024F00000D100BF13880B400BB1012000E0002089
:10250000704770B50246002400230025002040F6E5
:102510006A16B14200D100BFC1F3421501F01F039A
:10252000012606FA03F3012D02D19689334006E015
:10253000022D02D1168A334001E0968A33400C12F4
:10254000012606FA04F41688344013B10CB10120B8
:1025500000E0002070BDF0B50346002400260025F1
:10256000002040F66A17B94200D100BF1846C1F3F7
:10257000421401F01F06012707FA06F5012C01D1CC
:102580000C3004E0022C01D1103000E014301AB1FC
:1025900007682F43076002E00768AF430760F0BD9C
:1025A0002DE9F04786B005460E460024A24600BF3E
:1025B000A1460027B08900B100BF2F462C8A4CF6F7
:1025C000FF700440F08804432C82AC894EF6F3106F
:1025D0000440B08831890843718908430443AC81C1
:1025E000AC8A4FF6FF400440B0890443AC8201A896
:1025F000FFF7BEFC1F48874202D1DDF810A001E0C2
:10260000DDF80CA0A88900F4004040B10AEBCA0034
:1026100000EB0A1031684900B0FBF1F807E00AEB63
:10262000CA0000EB0A1031688900B0FBF1F86420A1
:10263000B8FBF0F004012009642101FB1089A8898E
:1026400000F4004040B1322000EBC900B0FBF1F0D3
:1026500000F00700044308E0322000EB0910642179
:10266000B0FBF1F000F00F0004432C8106B0BDE890
:10267000F08700000038014001468888C0F3080058
:102680007047C1F308028280704700001FB5012126
:102690005848FFF7A7FB01211120FFF759FC4FF421
:1026A0008070ADF80C0010208DF80F0003208DF81D
:1026B0000E0003A95048FFF709FB8020ADF80C007D
:1026C00028208DF80F0003A94B48FFF7FFFA4FF4BD
:1026D0000060ADF80C0010208DF80F0003208DF87D
:1026E0000E0003A94448FFF7F1FA4FF48050ADF80B
:1026F0000C0028208DF80F0003A93F48FFF7E6FAE9
:102700000120ADF80C0010208DF80F0003208DF88B
:102710000E0003A93848FFF7D9FA0220ADF80C00E3
:1027200028208DF80F0003A93348FFF7CFFA0721BF
:102730000220FFF7ABFA8020019000208DF80800FE
:1027400008208DF8090001208DF80A0001A8FFF784
:1027500053FA0C210220FFF799FA4FF480500190B0
:1027600000208DF8080008208DF8090001208DF860
:102770000A0001A8FFF740FA01210220FFF786FABC
:102780000220019000208DF8080008208DF8090033
:1027900001208DF80A0001A8FFF72EFA28208DF8F5
:1027A000000002208DF801008DF8020001208DF854
:1027B00003006846FFF778FB17208DF80000022021
:1027C0008DF801008DF8020001208DF803006846A5
:1027D000FFF76AFB07208DF8000002208DF801004A
:1027E0008DF8020001208DF803006846FFF75CFBBE
:1027F0001FBD0000000230000010014010B54FF472
:1028000080711648FFF741FB142000F0B9FA4FF42D
:1028100080711248FFF737FBC82000F08BFA4FF4A5
:1028200000610E48FFF731FB142000F0A9FA4FF4C5
:1028300000610A48FFF727FBC82000F07BFA01215E
:102840000648FFF722FB142000F09AFA0121034802
:10285000FFF719FBC82000F06DFA10BD0010014011
:1028600010B50446322203A1204600F0FBFD0020F3
:1028700010BD00000000000000BFFEE7490050EA64
:10288000C12018BF04204A0D18BF40F0010040F2DB
:10289000FF72B2EB515F08BF40F00200012808BF91
:1028A0000520704730380A2801D2012070470020E7
:1028B0007047014600BF704710B53D493D48FDF7E0
:1028C00051FE60B901203C4908703CA0FDF708FDAD
:1028D000012000F065FB37483EA1098801803E4990
:1028E0003448FDF73FFE48B9002033490870012005
:1028F00000F0E0FA2F4837A10988018037492D48B8
:10290000FDF730FE48B9012035490870022000F07B
:1029100047FB28482FA10988018032492548FDF747
:1029200021FE48B900202E490870022000F0C2FAAA
:10293000204828A1098801802B491E48FDF712FE76
:1029400048B9012029490870032000F029FB1948E3
:1029500020A10988018026491648FDF703FE48B9E1
:10296000002022490870032000F0A4FA114819A1A0
:10297000098801801F490F48FDF7F4FDB8B901200F
:102980001D490870002000F00BFB0A4811A10988BE
:1029900001804FF47A7000F0CDF94FF47A7000F0B6
:1029A000C9F9002000F086FA00201349087010BD14
:1029B00048070020900D0020100000202E2E2E2E03
:1029C0002E2E2E2E2E2E2E2E2E2E2E2E2E2E2E2E27
:1029D0002E0A00000A000000C8080020C8070020D6
:1029E00011000020480900204808002012000020A3
:1029F000C8090020480A00201300002010B51CA1BF
:102A00002048FDF779FC20A12448FDF775FC24A19E
:102A10002848FDF771FC28A12C48FDF76DFC2CA17E
:102A20003048FDF769FC30A13448FDF765FC34A15E
:102A30003848FDF761FC38A13C48FDF75DFC3CA13E
:102A40004048FDF759FC40A14448FDF755FC44A11E
:102A50004848FDF751FC48A14C48FDF74DFC4CA1FE
:102A60005148FDF749FC51A15648FDF745FC10BD02
:102A70007374617475732068637372203120310D33
:102A80000A000000480000207374617475732068A8
:102A9000637372203220310D0A000000C80000204C
:102AA0007374617475732068637372203320310D01
:102AB0000A00000048010020737461747573206877
:102AC000637372203120300D0A000000C80100201D
:102AD0007374617475732068637372203220300DD3
:102AE0000A00000048020020737461747573206846
:102AF000637372203320300D0A000000C8020020EA
:102B00007374617475732072656C61792031203142
:102B10000D0A0000480300207374617475732072FD
:102B2000656C6179203220310D0A0000C803002055
:102B30007374617475732072656C61792033203110
:102B40000D0A0000480400207374617475732072CC
:102B5000656C6179203120300D0A0000C804002026
:102B60007374617475732072656C617920322030E2
:102B70000D0A00004805002073746174757320729B
:102B8000656C6179203320300D0A0000C8050020F3
:102B90007374617475732072656C6179206D6169FD
:102BA0006E20310D0A000000480600207374617425
:102BB00075732072656C6179206D61696E20300DCE
:102BC0000A000000C806002010B512A11648FDF743
:102BD00093FB16A11A48FDF78FFB1AA11E48FDF7BB
:102BE0008BFB1EA12248FDF787FB22A12648FDF79B
:102BF00083FB26A12A48FDF77FFB2AA12F48FDF77A
:102C00007BFB2FA13448FDF777FB34A13748FDF754
:102C100073FB10BD636F6E74726F6C2072656C61B4
:102C2000792031203100000048070020636F6E7466
:102C3000726F6C2072656C61792032203100000067
:102C4000C8070020636F6E74726F6C2072656C61D0
:102C5000792033203100000048080020636F6E7433
:102C6000726F6C2072656C61792031203000000039
:102C7000C8080020636F6E74726F6C2072656C619F
:102C8000792032203000000048090020636F6E7404
:102C9000726F6C2072656C61792033203000000007
:102CA000C8090020636F6E74726F6C2072656C616E
:102CB00079206D61696E203100000000480A002013
:102CC000636F6E74726F6C2072656C6179206D61D8
:102CD000696E203000000000C80A0020636F6E7427
:102CE000726F6C20676574696E666F00480B002018
:102CF00010B56FF00400FFF71BFA0A4800680A4994
:102D0000B0FBF1F0094908700846007800EB40017B
:102D1000C1EBC0104FF6FF7101EAC0000449088002
:102D200010BD00001400002000127A0028000020CE
:102D30002A0000200146114A12884A434FF0E0233E
:102D40005A6100229A611A46126942F001021A6120
:102D500000BF4FF0E022106900F001021AB100F448
:102D60008032002AF5D04FF0E022126922F00102F1
:102D70004FF0E0231A6100229A6170472A00002078
:102D80000146114A12784A434FF0E0235A6100226B
:102D90009A611A46126942F001021A6100BF4FF0AF
:102DA000E022106900F001021AB100F48032002A1A
:102DB000F5D04FF0E022126922F001024FF0E0233B
:102DC0001A6100229A6170472800002000BF054A5E
:102DD000128802F04002002AF9D0C2B2014B1B1D3A
:102DE0001A80704700380140012021490860FFF730
:102DF00005FEFFF7E9FE4FF4E13000F0F7F91DA002
:102E0000FDF76EFA4FF4A060FFF786F8FFF770FF4A
:102E10004FF4E13000F088F941F61F4141F288306B
:102E2000FFF7ACFAFFF732FCFEF758FD00F050FA5E
:102E300000F062F816A11A48FDF75EFA19A0FFF734
:102E40000FFD13E0FFF7DAFCFFF7C4F9184800683C
:102E5000401C17490860084600680A2804DD00F095
:102E6000C1F8002012490860FFF726FDEAE70000DC
:102E7000040000200D0AB3B5CEBBD4A4B6A8CFB5CC
:102E8000CDB3D3B2BCFEB2BFB7D60D0A000000006E
:102E900074686520666972737420636D6400000055
:102EA000C80B002053544D5F33320D0A0000000060
:102EB0000000002010B5044634B1012C09D0022CCA
:102EC0000CD0032C14D10EE001210A48FEF7DDFFDF
:102ED0000EE002210748FEF7D8FF09E0042105486B
:102EE000FEF7D3FF04E008210248FEF7CEFF00BF43
:102EF00000BF10BD0018014008B501212648FEF7AB
:102F000071FF01214120FFF723F86846FEF7BFFF5C
:102F100010208DF803000120ADF8000002208DF88C
:102F2000020069461D48FEF7D1FE10208DF803000F
:102F30000220ADF800008DF8020069461748FEF740
:102F4000C5FE10208DF803000420ADF8000002201B
:102F50008DF8020069461148FEF7B8FE10208DF882
:102F600003000820ADF8000002208DF80200694639
:102F70000A48FEF7ABFE01210848FEF786FF022152
:102F80000648FEF782FF04210448FEF77EFF082171
:102F90000248FEF77AFF08BD000230000018014029
:102FA00010B5044634B1012C09D0022C0CD0032CEE
:102FB00014D10EE001210A48FEF765FF0EE0022160
:102FC0000748FEF760FF09E004210548FEF75BFFB4
:102FD00004E008210248FEF756FF00BF00BF10BD05
:102FE0000018014010B527480068012803D1264881
:102FF000FFF736FC02E02548FFF732FC2448006862
:10300000012803D12348FFF72BFC02E02248FFF7F9
:1030100027FC22480068012803D12148FFF720FC43
:1030200002E02048FFF71CFC1F480078012803D16C
:103030001E48FFF715FC02E01D48FFF711FC1D4874
:103040000078012803D11C48FFF70AFC02E01B4866
:10305000FFF706FC1A480078012803D11948FFF74A
:10306000FFFB02E01848FFF7FBFB18480078012837
:1030700003D11748FFF7F4FB02E01648FFF7F0FB17
:1030800010BD00000400002048000020C8010020FE
:1030900008000020C8000020480200200C0000208A
:1030A00048010020C8020020100000204803002032
:1030B000C804002011000020C8030020480500209B
:1030C0001200002048040020C80500201300002042
:1030D00048060020C80600200FB438B505A80090A7
:1030E0000F48009A0499FDF7E9F8002000900C4879
:1030F000FDF718FA85B200240DE000BF4021094811
:10310000FFF7F2F90028F9D00548015D0548FFF7FF
:10311000B8FA601C84B2AC42EFDB38BC5DF814FB3B
:10312000901100200044004010B586B004460121F3
:103130000420FEF70DFF01214804FEF7F9FE0420EC
:10314000ADF8140003208DF8160018208DF8170034
:1031500005A92248FEF7BAFD0820ADF814000420A6
:103160008DF8170005A91D48FEF7B0FD26208DF843
:10317000000003208DF801008DF8020001208DF879
:1031800003006846FEF790FE01940020ADF80800A9
:10319000ADF80A00ADF80C00ADF810000C20ADF849
:1031A0000E0001A90E48FFF7FBF9012240F225515C
:1031B0000B48FFF7D0F901210948FFF789F941F6DB
:1031C0001F416420FFF72AF800210648FFF759F84D
:1031D00000200549088006B010BD0000000801402D
:1031E00000440040000400404600002010B586B0B6
:1031F0000446012144F20400FEF7AAFE4FF40070D9
:10320000ADF8140003208DF8160018208DF8170073
:1032100005A91C48FEF75AFD4FF48060ADF8140074
:1032200004208DF8170005A91648FEF74FFD25204C
:103230008DF8000003208DF801008DF802000120B8
:103240008DF803006846FEF72FFE01940020ADF8CC
:103250000800ADF80A00ADF80C00ADF810000C2025
:10326000ADF80E0001A90848FFF79AF9012240F2D3
:1032700025510548FFF76FF901210348FFF728F9A9
:1032800006B010BD000801400038014070B504468A
:1032900000250B48008800F4004078B10020084960
:1032A0000988C1F30E01074A505421461046FDF724
:1032B00027F90546294604A0FDF712F8284670BDF7
:1032C00046000020900D002025730D0A000000002C
:1032D00000B5A1B02CA0FFF7FFFE3220FFF72AFDBA
:1032E0002AA101A8FDF708F801A931A0FCF7F8FF11
:1032F000142230A130A000F0B5F810B92FA0FCF7CF
:10330000EFFF14222BA130A000F0ACF84FF4FA62CA
:1033100028A101A800F0A6F80DE04FF4FA6225A15B
:1033200001A800F09FF818B92AA0FCF7D9FF0AE01D
:103330002CA0FCF7D5FF4FF4C8722EA12FA000F0EF
:1033400091F80028E9D100BF01202F4908604FF40F
:10335000FA70FFF7EFFC00202C49C1F8A0012CA067
:10336000FCF7BEFF4FF4FA7212A12CA000F07AF81D
:10337000642210A133A000F075F8322235A136A0E6
:1033800000F070F821B000BD2B2B2B0041542B43D3
:10339000574A41503D2243656C697465615F313025
:1033A00032222C22383532303835323022000000BB
:1033B000257300004F4B0000415400000D0A455298
:1033C000524F520D0A00000041542B43574D4F44B9
:1033D000453D31007769666920696E6974206F6BBD
:1033E0000D0A00007769666920696E69742065724C
:1033F000726F72002B43574A4150000041542B43D7
:10340000574A41503F000000A081214200802142E4
:10341000776966695F696E69740D0A0041542B43D0
:10342000495053544152543D22544350222C22318E
:1034300039322E3136382E312E313337222C31307D
:103440003030300041542B4349504D4F44453D31BD
:10345000000000003E00000041542B4349505345FA
:103460004E4400002DE9F04105460E461446002763
:10347000002016490880294615A0FFF72DFE2A4690
:1034800013A11548FCF738FFE6B1DCB113E00A20C0
:10349000FFF750FC0D48008800F4004058B130465A
:1034A000FFF7F4FE20B131460CA0FCF719FF06E04F
:1034B000002006490880601E80B20400E7D100BFEA
:1034C00004B901273846BDE8F0810000460000201D
:1034D00025730D0A000000009011002061636B3A13
:1034E00025730D0A0000000010B500290AD00878E5
:1034F000002807D005487844FDF734F8002801D0AB
:10350000002010BD0248784410BD0000AA0600004B
:10351000A206000010B500290AD00878002807D0BC
:1035200005487844FDF71EF8002801D0002010BDA2
:103530000248784410BD00009A0600009206000080
:1035400021F00042A2F16052B2F5801F01F0004369
:1035500028BFD2F17F6C0BD95FEA001C43EAC2029C
:1035600042EB507018BF704728BF20F00100704731
:10357000B2F5801FBCBF184670474FEA410C1CF5DE
:10358000001F02D2084600F057BA70B500F079F972
:1035900000000089FFF7F6BF4FF00040A0F5800063
:1035A000704700002DE9C04130B4DFF8A0C23CEA0A
:1035B000111418BF3CEA131400F0EC8081EA0305F3
:1035C0001CEA111444EAD57418BF1CEA131500F064
:1035D000C780A4EB05044FF0004545EAC12145EA48
:1035E000C32341EA505143EA525304F17F74994294
:1035F00004F500344FEAC0204FEAC22208BF9042CF
:1036000000F09C804FEA13650FF24016765D4FEA9A
:10361000134506FB05F7C7F1807706FB07F74FEA6E
:10362000D737A7FB03687642C8F58038A7FB06CEDC
:1036300038BFA8F1010807FB08E64FF0000EA6FB13
:10364000028CE6FB03CEDCF1000CCEF1004E38BF5D
:10365000AEF1010EA6FB0C584FF000074FF000052D
:10366000E6FB0E87A1FB08C6A0FB07CE16EB0E06F5
:1036700045F10005E1FB076515F1E04E7EBFA4F5BD
:1036800080345FEA46066D4116F1800745F100057A
:103690004FEA17274FEA066647EA0567A6F1DE46B6
:1036A000B6F1805F4FEA15251FD9384624F0010C8A
:1036B00005EBC471BCF1FE6F01EB0C1102D8F0BC3C
:1036C000BDE8008124425CBF01F5801E9EEAC47FF4
:1036D00002D4F0BCBDE80081244238D4F0BCA1F192
:1036E000C041BDE8004100F01AB94FEAD22242EAD7
:1036F00043524FEAD323A7FB02864FEAD02040EA89
:10370000415007FB03661EEA0E0F4FEAD12105FB6D
:10371000026658BFA6EB0056B6EB00564FEA520EB3
:103720004EEAC37E18EB0E0E56EB530EBDD518EBCA
:1037300002085E417F1C55F10005B6E74FF4801585
:103740004FF000074FF000064FF00008ADE7F0BC67
:103750004FF0000001F1C04101F00041BDE80081DF
:1037600011EA0C1F0CEA131500D00CE013EA0C1F31
:1037700000F025804FF00000F0BC81EA030101F069
:103780000041BDE80081F0BCBDE8004181EA0301D1
:1037900000F0C5B8F0BCBDE8004170B500F071F8AC
:1037A000097EFC3E00F007B881EA03014FF00000FB
:1037B00001F00041704781EA030100F0B0B8F0BCAD
:1037C000BDE800414FF0000021497047FFFDFBF9C3
:1037D000F7F5F4F2F0EEEDEBE9E8E6E4E3E1E0DE44
:1037E000DDDBDAD8D7D5D4D3D1D0CFCDCCCBCAC8B6
:1037F000C7C6C5C4C2C1C0BFBEBDBCBBBAB9B8B7DD
:10380000B6B5B4B3B2B1B0AFAEADACABAAA9A8A8CF
:10381000A7A6A5A4A3A3A2A1A09F9F9E9D9C9C9B9D
:103820009A99999897979695959493939291919048
:103830008F8F8E8E8D8C8C8B8B8A898988888787D9
:103840008685858484838382828181800000FF074E
:103850000000F87F10F0004248BF4042B0FA80F309
:1038600010FA03F10AD0C3F11D0303F580634FEA98
:10387000415002EB035202EBD12170474FF00000A0
:1038800070470EF1020E2EF0030E5EF8046B364206
:1038900005D4012A43EB030515F5001F12D80128B2
:1038A00041EB010C1CF5001F0CD80ED14FEAD17C66
:1038B00015F5001F0CEB4C0C0CF1020C08BF4CEB87
:1038C000D37C04E04FF0080C01E04FEAD37C0CEB12
:1038D0004C0526FA05F606F00706B6F1040C06D2EA
:1038E0000EEB860CBDE870404CF0010C6047DFE841
:1038F0000CF0090B02024FF000414FF00000A1F55F
:10390000002170BD19461046012851EB010418BF73
:10391000D4F5001484BF002001F0004170BD0808F8
:10392000A0F500114FEA31017047401058BFC0F1B7
:103930004040491058BFC1F140418142EFF300803F
:103940007047000050EA010C00F113801CF5000FD5
:1039500058BFBCF5000F01D48842704707D710F557
:10396000000F58BF11F5000F15D4884270478942E7
:1039700070471CF5000F04D5BCF5000FF7D5814248
:1039800070474FF0807C1CEB400F38BF1CEB410FA1
:1039900001D28142704710B500F008F89224490026
:1039A0004FF000504FF08051FFF7BFBF0EF1020EF5
:1039B0002EF0030E5EF8044B244204D44FEA410279
:1039C000B2F17F4F11D84FEA4003B3F17F4F0CD8CB
:1039D0000ED14FEAD07CB2F17F4F0CEB4C0C0CF1C6
:1039E000020C08BF4CEBD17C04E04FF0080C01E066
:1039F0004FEAD17C0CEB4C0324FA03F404F00704E7
:103A0000B4F1040C06D20EEB840CBDE810404CF06F
:103A1000010C6047DFE80CF0070802024FF000409D
:103A2000A0F5800010BD0846420018BFD2F1807298
:103A300088BF00F0004010BDFF2141EAD050C00512
:103A4000704751EA000C00F113801CF5000F58BFBD
:103A5000BCF5000F01D48142704707D711F5000F64
:103A600058BF10F5000F15D4814270478942704746
:103A70001CF5000F04D5BCF5000FF7D58842704740
:103A80004FF0807C1CEB410F38BF1CEB400F01D284
:103A90008842704780EA010081EA000180EA010063
:103AA000FFF779BFFDF705B904000008000000002A
:103AB00000000002000100001000000000000000F3
:103AC0000000000030313233343536373839414266
:103AD0004344454640305800303132333435363770
:103AE00038396162636465664030780002400000E6
:103AF000000000A00000000005400000000000C819
:103B0000000000000C4000000000409C000000008D
:103B1000194000000020BCBE00000000344000003E
:103B2000BFC91B8E00000004B5400000504BCFD031
:103B30006607E2CF010000006C4100003E8251AAFE
:103B4000DFEEA73401000000D9420000DCB5A0E29E
:103B50003A301F97FFFFFFFFB4450000FD25A0C8C6
:103B6000E9A3C14FFFFFFFFFFF3F000000000080FF
:103B700000000000FF3F0000000000800000000087
:103B8000CC3C000800000020480000006C01000848
:103B9000143D00084800002040180000880100087B
:103BA0001C00000043000000F8FFFFFF0C000000B5
:103BB0000E0000000F0000002E00000010010000A9
:103BC00043000000F8FFFFFF0040404040404040FD
:103BD00040404141414141404040404040404040E0
:103BE0004040404040404040400502020202020284
:103BF00002020202020202020220202020202020D3
:103C000020202002020202020202909090909090E6
:103C100010101010101010101010101010101010A4
:103C20001010101002020202020288888888888818
:103C30000808080808080808080808080808080804
:103C4000080808080202020240000000000000000C
:103C50000000000000000000000000000000000064
:103C60000000000000000000000000000000000054
:103C70000000000000000000000000000000000044
:103C80000000000000000000000000000000000034
:103C90000000000000000000000000000000000024
:103CA0000000000000000000000000000000000014
:103CB0000000000000000000000000000000000004
:103CC00000000000000000000000000000000000F4
:103CD00000000000000000000000000000000000E4
:103CE00000A24A04000000000000000001020304DA
:103CF00006070809000000000000000000000000A6
:103D0000000001020304010203040607080902047B
:043D100006080000A1
:040000050800027974
:00000001FF
